{
  "contractName": "MilkSupplyChain",
  "abi": [
    {
      "anonymous": false,
      "inputs": [
        {
          "indexed": false,
          "internalType": "string",
          "name": "serialNumber",
          "type": "string"
        },
        {
          "indexed": false,
          "internalType": "enum MilkSupplyChain.MilkBoxStatus",
          "name": "status",
          "type": "uint8"
        }
      ],
      "name": "BoxStatusUpdated",
      "type": "event"
    },
    {
      "anonymous": false,
      "inputs": [
        {
          "indexed": false,
          "internalType": "string",
          "name": "serialNumber",
          "type": "string"
        },
        {
          "indexed": false,
          "internalType": "string",
          "name": "distributor",
          "type": "string"
        }
      ],
      "name": "DistributorUpdated",
      "type": "event"
    },
    {
      "anonymous": false,
      "inputs": [
        {
          "indexed": false,
          "internalType": "uint256",
          "name": "batchId",
          "type": "uint256"
        }
      ],
      "name": "MilkBatchApproved",
      "type": "event"
    },
    {
      "anonymous": false,
      "inputs": [
        {
          "indexed": false,
          "internalType": "uint256",
          "name": "batchId",
          "type": "uint256"
        },
        {
          "indexed": false,
          "internalType": "string",
          "name": "batchName",
          "type": "string"
        },
        {
          "indexed": false,
          "internalType": "string",
          "name": "milkingDate",
          "type": "string"
        },
        {
          "indexed": false,
          "internalType": "uint256",
          "name": "volume",
          "type": "uint256"
        }
      ],
      "name": "MilkBatchCreated",
      "type": "event"
    },
    {
      "anonymous": false,
      "inputs": [
        {
          "indexed": false,
          "internalType": "string",
          "name": "serialNumber",
          "type": "string"
        },
        {
          "indexed": false,
          "internalType": "uint256",
          "name": "batchId",
          "type": "uint256"
        }
      ],
      "name": "MilkBoxCreated",
      "type": "event"
    },
    {
      "anonymous": false,
      "inputs": [
        {
          "indexed": false,
          "internalType": "string",
          "name": "serialNumber",
          "type": "string"
        }
      ],
      "name": "ProcessingBoxApproved",
      "type": "event"
    },
    {
      "anonymous": false,
      "inputs": [
        {
          "indexed": false,
          "internalType": "string",
          "name": "serialNumber",
          "type": "string"
        }
      ],
      "name": "TransportBoxApproved",
      "type": "event"
    },
    {
      "inputs": [
        {
          "internalType": "uint256",
          "name": "",
          "type": "uint256"
        }
      ],
      "name": "milkBatches",
      "outputs": [
        {
          "internalType": "uint256",
          "name": "batchId",
          "type": "uint256"
        },
        {
          "internalType": "string",
          "name": "batchName",
          "type": "string"
        },
        {
          "internalType": "string",
          "name": "milkingDate",
          "type": "string"
        },
        {
          "internalType": "uint256",
          "name": "volume",
          "type": "uint256"
        },
        {
          "internalType": "string",
          "name": "farmOwner",
          "type": "string"
        },
        {
          "internalType": "string",
          "name": "approvedBy",
          "type": "string"
        },
        {
          "internalType": "enum MilkSupplyChain.BatchStatus",
          "name": "status",
          "type": "uint8"
        }
      ],
      "stateMutability": "view",
      "type": "function",
      "constant": true
    },
    {
      "inputs": [
        {
          "internalType": "string",
          "name": "",
          "type": "string"
        }
      ],
      "name": "milkBoxes",
      "outputs": [
        {
          "internalType": "string",
          "name": "serialNumber",
          "type": "string"
        },
        {
          "internalType": "uint256",
          "name": "batchId",
          "type": "uint256"
        },
        {
          "internalType": "bool",
          "name": "processingApproved",
          "type": "bool"
        },
        {
          "internalType": "bool",
          "name": "transportApproved",
          "type": "bool"
        },
        {
          "internalType": "string",
          "name": "distributorAddress",
          "type": "string"
        },
        {
          "internalType": "enum MilkSupplyChain.MilkBoxStatus",
          "name": "status",
          "type": "uint8"
        },
        {
          "internalType": "string",
          "name": "owner",
          "type": "string"
        },
        {
          "internalType": "string",
          "name": "manufacturer",
          "type": "string"
        },
        {
          "internalType": "string",
          "name": "boxName",
          "type": "string"
        },
        {
          "internalType": "string",
          "name": "manufacturingDate",
          "type": "string"
        },
        {
          "internalType": "string",
          "name": "expirationDate",
          "type": "string"
        }
      ],
      "stateMutability": "view",
      "type": "function",
      "constant": true
    },
    {
      "inputs": [],
      "name": "nextBatchId",
      "outputs": [
        {
          "internalType": "uint256",
          "name": "",
          "type": "uint256"
        }
      ],
      "stateMutability": "view",
      "type": "function",
      "constant": true
    },
    {
      "inputs": [
        {
          "internalType": "uint256",
          "name": "",
          "type": "uint256"
        }
      ],
      "name": "participantAddresses",
      "outputs": [
        {
          "internalType": "address",
          "name": "",
          "type": "address"
        }
      ],
      "stateMutability": "view",
      "type": "function",
      "constant": true
    },
    {
      "inputs": [
        {
          "internalType": "address",
          "name": "",
          "type": "address"
        }
      ],
      "name": "participantRegistered",
      "outputs": [
        {
          "internalType": "bool",
          "name": "",
          "type": "bool"
        }
      ],
      "stateMutability": "view",
      "type": "function",
      "constant": true
    },
    {
      "inputs": [
        {
          "internalType": "address",
          "name": "",
          "type": "address"
        }
      ],
      "name": "participants",
      "outputs": [
        {
          "internalType": "string",
          "name": "name",
          "type": "string"
        },
        {
          "internalType": "string",
          "name": "location",
          "type": "string"
        },
        {
          "internalType": "string",
          "name": "phone",
          "type": "string"
        },
        {
          "internalType": "string",
          "name": "role",
          "type": "string"
        },
        {
          "internalType": "bool",
          "name": "isActive",
          "type": "bool"
        }
      ],
      "stateMutability": "view",
      "type": "function",
      "constant": true
    },
    {
      "inputs": [
        {
          "internalType": "address",
          "name": "_participant",
          "type": "address"
        },
        {
          "internalType": "string",
          "name": "_name",
          "type": "string"
        },
        {
          "internalType": "string",
          "name": "_location",
          "type": "string"
        },
        {
          "internalType": "string",
          "name": "_phone",
          "type": "string"
        },
        {
          "internalType": "string",
          "name": "_role",
          "type": "string"
        },
        {
          "internalType": "bool",
          "name": "_isActive",
          "type": "bool"
        }
      ],
      "name": "setParticipant",
      "outputs": [],
      "stateMutability": "nonpayable",
      "type": "function"
    },
    {
      "inputs": [],
      "name": "getParticipants",
      "outputs": [
        {
          "components": [
            {
              "internalType": "string",
              "name": "name",
              "type": "string"
            },
            {
              "internalType": "string",
              "name": "location",
              "type": "string"
            },
            {
              "internalType": "string",
              "name": "phone",
              "type": "string"
            },
            {
              "internalType": "string",
              "name": "role",
              "type": "string"
            },
            {
              "internalType": "bool",
              "name": "isActive",
              "type": "bool"
            }
          ],
          "internalType": "struct MilkSupplyChain.Participant[]",
          "name": "",
          "type": "tuple[]"
        }
      ],
      "stateMutability": "view",
      "type": "function",
      "constant": true
    },
    {
      "inputs": [
        {
          "internalType": "string",
          "name": "_batchName",
          "type": "string"
        },
        {
          "internalType": "string",
          "name": "_milkingDate",
          "type": "string"
        },
        {
          "internalType": "uint256",
          "name": "_volume",
          "type": "uint256"
        },
        {
          "internalType": "string",
          "name": "_farmOwner",
          "type": "string"
        },
        {
          "internalType": "string",
          "name": "_approvedBy",
          "type": "string"
        }
      ],
      "name": "createMilkBatch",
      "outputs": [],
      "stateMutability": "nonpayable",
      "type": "function"
    },
    {
      "inputs": [
        {
          "internalType": "uint256",
          "name": "_batchId",
          "type": "uint256"
        },
        {
          "internalType": "string",
          "name": "_approvedBy",
          "type": "string"
        }
      ],
      "name": "approveMilking",
      "outputs": [],
      "stateMutability": "nonpayable",
      "type": "function"
    },
    {
      "inputs": [
        {
          "internalType": "uint256",
          "name": "_batchId",
          "type": "uint256"
        },
        {
          "internalType": "string",
          "name": "_serialNumber",
          "type": "string"
        },
        {
          "internalType": "string",
          "name": "_boxName",
          "type": "string"
        },
        {
          "internalType": "string",
          "name": "_manufacturingDate",
          "type": "string"
        },
        {
          "internalType": "string",
          "name": "_expirationDate",
          "type": "string"
        },
        {
          "internalType": "string",
          "name": "_manufacturer",
          "type": "string"
        },
        {
          "internalType": "string",
          "name": "_distributorAddress",
          "type": "string"
        }
      ],
      "name": "createMilkBox",
      "outputs": [],
      "stateMutability": "nonpayable",
      "type": "function"
    },
    {
      "inputs": [
        {
          "internalType": "string",
          "name": "_serialNumber",
          "type": "string"
        }
      ],
      "name": "approveProcessingBox",
      "outputs": [],
      "stateMutability": "nonpayable",
      "type": "function"
    },
    {
      "inputs": [
        {
          "internalType": "string",
          "name": "_serialNumber",
          "type": "string"
        },
        {
          "internalType": "string",
          "name": "_distributorAddress",
          "type": "string"
        },
        {
          "internalType": "string",
          "name": "_owner",
          "type": "string"
        }
      ],
      "name": "updateDistributor",
      "outputs": [],
      "stateMutability": "nonpayable",
      "type": "function"
    },
    {
      "inputs": [
        {
          "internalType": "string",
          "name": "_serialNumber",
          "type": "string"
        }
      ],
      "name": "approveTransportBox",
      "outputs": [],
      "stateMutability": "nonpayable",
      "type": "function"
    },
    {
      "inputs": [
        {
          "internalType": "string",
          "name": "_serialNumber",
          "type": "string"
        },
        {
          "internalType": "enum MilkSupplyChain.MilkBoxStatus",
          "name": "_newStatus",
          "type": "uint8"
        }
      ],
      "name": "updateBoxStatusAtRetail",
      "outputs": [],
      "stateMutability": "nonpayable",
      "type": "function"
    },
    {
      "inputs": [
        {
          "internalType": "string",
          "name": "_serialNumber",
          "type": "string"
        }
      ],
      "name": "getMilkBoxDetails",
      "outputs": [
        {
          "components": [
            {
              "internalType": "string",
              "name": "serialNumber",
              "type": "string"
            },
            {
              "internalType": "uint256",
              "name": "batchId",
              "type": "uint256"
            },
            {
              "internalType": "bool",
              "name": "processingApproved",
              "type": "bool"
            },
            {
              "internalType": "bool",
              "name": "transportApproved",
              "type": "bool"
            },
            {
              "internalType": "string",
              "name": "distributorAddress",
              "type": "string"
            },
            {
              "internalType": "uint8",
              "name": "boxStatus",
              "type": "uint8"
            },
            {
              "internalType": "string",
              "name": "owner",
              "type": "string"
            },
            {
              "internalType": "string",
              "name": "manufacturer",
              "type": "string"
            },
            {
              "internalType": "string",
              "name": "boxName",
              "type": "string"
            },
            {
              "internalType": "string",
              "name": "manufacturingDate",
              "type": "string"
            },
            {
              "internalType": "string",
              "name": "expirationDate",
              "type": "string"
            },
            {
              "internalType": "string",
              "name": "batchName",
              "type": "string"
            },
            {
              "internalType": "string",
              "name": "milkingDate",
              "type": "string"
            },
            {
              "internalType": "uint256",
              "name": "volume",
              "type": "uint256"
            },
            {
              "internalType": "string",
              "name": "farmOwner",
              "type": "string"
            },
            {
              "internalType": "string",
              "name": "approvedBy",
              "type": "string"
            },
            {
              "internalType": "uint8",
              "name": "batchStatus",
              "type": "uint8"
            }
          ],
          "internalType": "struct MilkSupplyChain.MilkBoxDetail",
          "name": "",
          "type": "tuple"
        }
      ],
      "stateMutability": "view",
      "type": "function",
      "constant": true
    }
  ],
  "bytecode": "0x6080604052600160045534801561001557600080fd5b50614a4f806100256000396000f3fe608060405234801561001057600080fd5b50600436106101005760003560e01c80635aa68ac011610097578063d301246411610066578063d3012464146102c7578063e849fb6b146102e3578063e94aabb61461031d578063f5c1b0a61461033957610100565b80635aa68ac01461023f578063600c3e441461025d5780638462a7f814610279578063aa8531701461029757610100565b80633827cca1116100d35780633827cca1146101a15780634c143675146101bd5780634e266aea146101d957806354ffbddb1461020f57610100565b806309e69ede146101055780631c79d9f0146101395780631d733337146101555780632b14760b14610185575b600080fd5b61011f600480360381019061011a919061348f565b610355565b60405161013095949392919061424b565b60405180910390f35b610153600480360381019061014e91906137cd565b6105b8565b005b61016f600480360381019061016a919061348f565b610832565b60405161017c91906141a7565b60405180910390f35b61019f600480360381019061019a91906136cd565b610852565b005b6101bb60048036038101906101b691906135e2565b610b77565b005b6101d760048036038101906101d291906135a1565b610df5565b005b6101f360048036038101906101ee91906137a4565b61103b565b60405161020697969594939291906145f6565b60405180910390f35b610229600480360381019061022491906137a4565b6112aa565b604051610236919061416a565b60405180910390f35b6102476112e9565b6040516102549190614185565b60405180910390f35b610277600480360381019061027291906135a1565b6116ee565b005b6102816119a4565b60405161028e9190614588565b60405180910390f35b6102b160048036038101906102ac91906135a1565b6119aa565b6040516102be9190614566565b60405180910390f35b6102e160048036038101906102dc9190613636565b612337565b005b6102fd60048036038101906102f891906135a1565b612623565b6040516103149b9a999897969594939291906142ea565b60405180910390f35b610337600480360381019061033291906134b8565b612a72565b005b610353600480360381019061034e9190613821565b612c85565b005b600060205280600052604060002060009150905080600001805461037890614854565b80601f01602080910402602001604051908101604052809291908181526020018280546103a490614854565b80156103f15780601f106103c6576101008083540402835291602001916103f1565b820191906000526020600020905b8154815290600101906020018083116103d457829003601f168201915b50505050509080600101805461040690614854565b80601f016020809104026020016040519081016040528092919081815260200182805461043290614854565b801561047f5780601f106104545761010080835404028352916020019161047f565b820191906000526020600020905b81548152906001019060200180831161046257829003601f168201915b50505050509080600201805461049490614854565b80601f01602080910402602001604051908101604052809291908181526020018280546104c090614854565b801561050d5780601f106104e25761010080835404028352916020019161050d565b820191906000526020600020905b8154815290600101906020018083116104f057829003601f168201915b50505050509080600301805461052290614854565b80601f016020809104026020016040519081016040528092919081815260200182805461054e90614854565b801561059b5780601f106105705761010080835404028352916020019161059b565b820191906000526020600020905b81548152906001019060200180831161057e57829003601f168201915b5050505050908060040160009054906101000a900460ff16905085565b6000803373ffffffffffffffffffffffffffffffffffffffff1673ffffffffffffffffffffffffffffffffffffffff16815260200190815260200160002060040160009054906101000a900460ff16610646576040517f08c379a000000000000000000000000000000000000000000000000000000000815260040161063d906144c6565b60405180910390fd5b6040518060400160405280601381526020017f4e5554524954494f4e5f415554484f5249545900000000000000000000000000815250805190602001206000803373ffffffffffffffffffffffffffffffffffffffff1673ffffffffffffffffffffffffffffffffffffffff1681526020019081526020016000206003016040516106d1919061413c565b604051809103902014610719576040517f08c379a000000000000000000000000000000000000000000000000000000000815260040161071090614486565b60405180910390fd5b600060036000848152602001908152602001600020600001541415610773576040517f08c379a000000000000000000000000000000000000000000000000000000000815260040161076a906143c6565b60405180910390fd5b6000600360008481526020019081526020016000209050818160050190805190602001906107a2929190613271565b5060018160060160006101000a81548160ff021916908360038111156107f1577f4e487b7100000000000000000000000000000000000000000000000000000000600052602160045260246000fd5b02179055507f62140afecdc609db4f53ad5f798f2ddb7c58cc3f54dc8ca5d6b35b0d0632f84d836040516108259190614588565b60405180910390a1505050565b60026020528060005260406000206000915054906101000a900460ff1681565b6000803373ffffffffffffffffffffffffffffffffffffffff1673ffffffffffffffffffffffffffffffffffffffff16815260200190815260200160002060040160009054906101000a900460ff166108e0576040517f08c379a00000000000000000000000000000000000000000000000000000000081526004016108d7906144c6565b60405180910390fd5b6040518060400160405280600481526020017f4641524d00000000000000000000000000000000000000000000000000000000815250805190602001206000803373ffffffffffffffffffffffffffffffffffffffff1673ffffffffffffffffffffffffffffffffffffffff16815260200190815260200160002060030160405161096b919061413c565b6040518091039020146109b3576040517f08c379a00000000000000000000000000000000000000000000000000000000081526004016109aa90614506565b60405180910390fd5b60006004549050600460008154809291906109cd90614886565b91905055506040518060e0016040528082815260200187815260200186815260200185815260200184815260200183815260200160006003811115610a3b577f4e487b7100000000000000000000000000000000000000000000000000000000600052602160045260246000fd5b81525060036000838152602001908152602001600020600082015181600001556020820151816001019080519060200190610a77929190613271565b506040820151816002019080519060200190610a94929190613271565b50606082015181600301556080820151816004019080519060200190610abb929190613271565b5060a0820151816005019080519060200190610ad8929190613271565b5060c08201518160060160006101000a81548160ff02191690836003811115610b2a577f4e487b7100000000000000000000000000000000000000000000000000000000600052602160045260246000fd5b02179055509050507fef4b055cf5e993c6d83cf74a12e25bf0adc276bc3a6e39eb6c2ba0960535445d81878787604051610b6794939291906145a3565b60405180910390a1505050505050565b6000803373ffffffffffffffffffffffffffffffffffffffff1673ffffffffffffffffffffffffffffffffffffffff16815260200190815260200160002060040160009054906101000a900460ff16610c05576040517f08c379a0000000000000000000000000000000000000000000000000000000008152600401610bfc906144c6565b60405180910390fd5b6040518060400160405280600881526020017f52455441494c4552000000000000000000000000000000000000000000000000815250805190602001206000803373ffffffffffffffffffffffffffffffffffffffff1673ffffffffffffffffffffffffffffffffffffffff168152602001908152602001600020600301604051610c90919061413c565b604051809103902014610cd8576040517f08c379a0000000000000000000000000000000000000000000000000000000008152600401610ccf90614446565b60405180910390fd5b6000600583604051610cea9190614153565b90815260200160405180910390206000018054610d0690614854565b90501415610d49576040517f08c379a0000000000000000000000000000000000000000000000000000000008152600401610d4090614546565b60405180910390fd5b80600583604051610d5a9190614153565b908152602001604051809103902060040160006101000a81548160ff02191690836004811115610db3577f4e487b7100000000000000000000000000000000000000000000000000000000600052602160045260246000fd5b02179055507f4c0a4d3facab28166bd1c55596a07bb0a00b61821553223addb723b931d11b8d8282604051610de99291906141e4565b60405180910390a15050565b6000803373ffffffffffffffffffffffffffffffffffffffff1673ffffffffffffffffffffffffffffffffffffffff16815260200190815260200160002060040160009054906101000a900460ff16610e83576040517f08c379a0000000000000000000000000000000000000000000000000000000008152600401610e7a906144c6565b60405180910390fd5b6040518060400160405280601381526020017f5452414e53504f52545f415554484f5249545900000000000000000000000000815250805190602001206000803373ffffffffffffffffffffffffffffffffffffffff1673ffffffffffffffffffffffffffffffffffffffff168152602001908152602001600020600301604051610f0e919061413c565b604051809103902014610f56576040517f08c379a0000000000000000000000000000000000000000000000000000000008152600401610f4d90614426565b60405180910390fd5b6000600582604051610f689190614153565b90815260200160405180910390206000018054610f8490614854565b90501415610fc7576040517f08c379a0000000000000000000000000000000000000000000000000000000008152600401610fbe90614546565b60405180910390fd5b6001600582604051610fd99190614153565b908152602001604051809103902060020160016101000a81548160ff0219169083151502179055507f53328116520672148febbdab09d3767790087c1367615613d31da4b9c864eb828160405161103091906141c2565b60405180910390a150565b600360205280600052604060002060009150905080600001549080600101805461106490614854565b80601f016020809104026020016040519081016040528092919081815260200182805461109090614854565b80156110dd5780601f106110b2576101008083540402835291602001916110dd565b820191906000526020600020905b8154815290600101906020018083116110c057829003601f168201915b5050505050908060020180546110f290614854565b80601f016020809104026020016040519081016040528092919081815260200182805461111e90614854565b801561116b5780601f106111405761010080835404028352916020019161116b565b820191906000526020600020905b81548152906001019060200180831161114e57829003601f168201915b50505050509080600301549080600401805461118690614854565b80601f01602080910402602001604051908101604052809291908181526020018280546111b290614854565b80156111ff5780601f106111d4576101008083540402835291602001916111ff565b820191906000526020600020905b8154815290600101906020018083116111e257829003601f168201915b50505050509080600501805461121490614854565b80601f016020809104026020016040519081016040528092919081815260200182805461124090614854565b801561128d5780601f106112625761010080835404028352916020019161128d565b820191906000526020600020905b81548152906001019060200180831161127057829003601f168201915b5050505050908060060160009054906101000a900460ff16905087565b600181815481106112ba57600080fd5b906000526020600020016000915054906101000a900473ffffffffffffffffffffffffffffffffffffffff1681565b60606000600180549050905060008167ffffffffffffffff811115611337577f4e487b7100000000000000000000000000000000000000000000000000000000600052604160045260246000fd5b60405190808252806020026020018201604052801561137057816020015b61135d6132f7565b8152602001906001900390816113555790505b50905060005b828110156116e557600080600183815481106113bb577f4e487b7100000000000000000000000000000000000000000000000000000000600052603260045260246000fd5b9060005260206000200160009054906101000a900473ffffffffffffffffffffffffffffffffffffffff1673ffffffffffffffffffffffffffffffffffffffff1673ffffffffffffffffffffffffffffffffffffffff1681526020019081526020016000206040518060a001604052908160008201805461143b90614854565b80601f016020809104026020016040519081016040528092919081815260200182805461146790614854565b80156114b45780601f10611489576101008083540402835291602001916114b4565b820191906000526020600020905b81548152906001019060200180831161149757829003601f168201915b505050505081526020016001820180546114cd90614854565b80601f01602080910402602001604051908101604052809291908181526020018280546114f990614854565b80156115465780601f1061151b57610100808354040283529160200191611546565b820191906000526020600020905b81548152906001019060200180831161152957829003601f168201915b5050505050815260200160028201805461155f90614854565b80601f016020809104026020016040519081016040528092919081815260200182805461158b90614854565b80156115d85780601f106115ad576101008083540402835291602001916115d8565b820191906000526020600020905b8154815290600101906020018083116115bb57829003601f168201915b505050505081526020016003820180546115f190614854565b80601f016020809104026020016040519081016040528092919081815260200182805461161d90614854565b801561166a5780601f1061163f5761010080835404028352916020019161166a565b820191906000526020600020905b81548152906001019060200180831161164d57829003601f168201915b505050505081526020016004820160009054906101000a900460ff1615151515815250508282815181106116c7577f4e487b7100000000000000000000000000000000000000000000000000000000600052603260045260246000fd5b602002602001018190525080806116dd90614886565b915050611376565b50809250505090565b6000803373ffffffffffffffffffffffffffffffffffffffff1673ffffffffffffffffffffffffffffffffffffffff16815260200190815260200160002060040160009054906101000a900460ff1661177c576040517f08c379a0000000000000000000000000000000000000000000000000000000008152600401611773906144c6565b60405180910390fd5b6040518060400160405280601581526020017f464f4f445f5341464554595f415554484f524954590000000000000000000000815250805190602001206000803373ffffffffffffffffffffffffffffffffffffffff1673ffffffffffffffffffffffffffffffffffffffff168152602001908152602001600020600301604051611807919061413c565b60405180910390201461184f576040517f08c379a0000000000000000000000000000000000000000000000000000000008152600401611846906144e6565b60405180910390fd5b60006005826040516118619190614153565b9081526020016040518091039020600001805461187d90614854565b905014156118c0576040517f08c379a00000000000000000000000000000000000000000000000000000000081526004016118b790614546565b60405180910390fd5b60016005826040516118d29190614153565b908152602001604051809103902060020160006101000a81548160ff021916908315150217905550600160058260405161190c9190614153565b908152602001604051809103902060040160006101000a81548160ff02191690836004811115611965577f4e487b7100000000000000000000000000000000000000000000000000000000600052602160045260246000fd5b02179055507f17de5669c9ffba8689a30adcbb78e5758413b6fef1781d60316ace11ef500ab58160405161199991906141c2565b60405180910390a150565b60045481565b6119b2613328565b60006005836040516119c49190614153565b9081526020016040518091039020604051806101600160405290816000820180546119ee90614854565b80601f0160208091040260200160405190810160405280929190818152602001828054611a1a90614854565b8015611a675780601f10611a3c57610100808354040283529160200191611a67565b820191906000526020600020905b815481529060010190602001808311611a4a57829003601f168201915b50505050508152602001600182015481526020016002820160009054906101000a900460ff161515151581526020016002820160019054906101000a900460ff16151515158152602001600382018054611ac090614854565b80601f0160208091040260200160405190810160405280929190818152602001828054611aec90614854565b8015611b395780601f10611b0e57610100808354040283529160200191611b39565b820191906000526020600020905b815481529060010190602001808311611b1c57829003601f168201915b505050505081526020016004820160009054906101000a900460ff166004811115611b8d577f4e487b7100000000000000000000000000000000000000000000000000000000600052602160045260246000fd5b6004811115611bc5577f4e487b7100000000000000000000000000000000000000000000000000000000600052602160045260246000fd5b8152602001600582018054611bd990614854565b80601f0160208091040260200160405190810160405280929190818152602001828054611c0590614854565b8015611c525780601f10611c2757610100808354040283529160200191611c52565b820191906000526020600020905b815481529060010190602001808311611c3557829003601f168201915b50505050508152602001600682018054611c6b90614854565b80601f0160208091040260200160405190810160405280929190818152602001828054611c9790614854565b8015611ce45780601f10611cb957610100808354040283529160200191611ce4565b820191906000526020600020905b815481529060010190602001808311611cc757829003601f168201915b50505050508152602001600782018054611cfd90614854565b80601f0160208091040260200160405190810160405280929190818152602001828054611d2990614854565b8015611d765780601f10611d4b57610100808354040283529160200191611d76565b820191906000526020600020905b815481529060010190602001808311611d5957829003601f168201915b50505050508152602001600882018054611d8f90614854565b80601f0160208091040260200160405190810160405280929190818152602001828054611dbb90614854565b8015611e085780601f10611ddd57610100808354040283529160200191611e08565b820191906000526020600020905b815481529060010190602001808311611deb57829003601f168201915b50505050508152602001600982018054611e2190614854565b80601f0160208091040260200160405190810160405280929190818152602001828054611e4d90614854565b8015611e9a5780601f10611e6f57610100808354040283529160200191611e9a565b820191906000526020600020905b815481529060010190602001808311611e7d57829003601f168201915b505050505081525050905060008160000151511415611eee576040517f08c379a0000000000000000000000000000000000000000000000000000000008152600401611ee590614546565b60405180910390fd5b600060036000836020015181526020019081526020016000206040518060e001604052908160008201548152602001600182018054611f2c90614854565b80601f0160208091040260200160405190810160405280929190818152602001828054611f5890614854565b8015611fa55780601f10611f7a57610100808354040283529160200191611fa5565b820191906000526020600020905b815481529060010190602001808311611f8857829003601f168201915b50505050508152602001600282018054611fbe90614854565b80601f0160208091040260200160405190810160405280929190818152602001828054611fea90614854565b80156120375780601f1061200c57610100808354040283529160200191612037565b820191906000526020600020905b81548152906001019060200180831161201a57829003601f168201915b505050505081526020016003820154815260200160048201805461205a90614854565b80601f016020809104026020016040519081016040528092919081815260200182805461208690614854565b80156120d35780601f106120a8576101008083540402835291602001916120d3565b820191906000526020600020905b8154815290600101906020018083116120b657829003601f168201915b505050505081526020016005820180546120ec90614854565b80601f016020809104026020016040519081016040528092919081815260200182805461211890614854565b80156121655780601f1061213a57610100808354040283529160200191612165565b820191906000526020600020905b81548152906001019060200180831161214857829003601f168201915b505050505081526020016006820160009054906101000a900460ff1660038111156121b9577f4e487b7100000000000000000000000000000000000000000000000000000000600052602160045260246000fd5b60038111156121f1577f4e487b7100000000000000000000000000000000000000000000000000000000600052602160045260246000fd5b81525050905060006040518061022001604052808460000151815260200184602001518152602001846040015115158152602001846060015115158152602001846080015181526020018460a001516004811115612278577f4e487b7100000000000000000000000000000000000000000000000000000000600052602160045260246000fd5b60ff1681526020018460c0015181526020018460e001518152602001846101000151815260200184610120015181526020018461014001518152602001836020015181526020018360400151815260200183606001518152602001836080015181526020018360a0015181526020018360c001516003811115612324577f4e487b7100000000000000000000000000000000000000000000000000000000600052602160045260246000fd5b60ff168152509050809350505050919050565b6000803373ffffffffffffffffffffffffffffffffffffffff1673ffffffffffffffffffffffffffffffffffffffff16815260200190815260200160002060040160009054906101000a900460ff166123c5576040517f08c379a00000000000000000000000000000000000000000000000000000000081526004016123bc906144c6565b60405180910390fd5b6040518060400160405280600b81526020017f4449535452494255544f52000000000000000000000000000000000000000000815250805190602001206000803373ffffffffffffffffffffffffffffffffffffffff1673ffffffffffffffffffffffffffffffffffffffff168152602001908152602001600020600301604051612450919061413c565b604051809103902014612498576040517f08c379a000000000000000000000000000000000000000000000000000000000815260040161248f906144a6565b60405180910390fd5b60006005846040516124aa9190614153565b908152602001604051809103902060000180546124c690614854565b90501415612509576040517f08c379a000000000000000000000000000000000000000000000000000000000815260040161250090614546565b60405180910390fd5b8160058460405161251a9190614153565b9081526020016040518091039020600301908051906020019061253e929190613271565b50806005846040516125509190614153565b90815260200160405180910390206005019080519060200190612574929190613271565b5060026005846040516125879190614153565b908152602001604051809103902060040160006101000a81548160ff021916908360048111156125e0577f4e487b7100000000000000000000000000000000000000000000000000000000600052602160045260246000fd5b02179055507fdc8cabdb0e711a565797ff3869725802ae343d5694a86de295b52d016e5cd8758382604051612616929190614214565b60405180910390a1505050565b60058180516020810182018051848252602083016020850120818352809550505050505060009150905080600001805461265c90614854565b80601f016020809104026020016040519081016040528092919081815260200182805461268890614854565b80156126d55780601f106126aa576101008083540402835291602001916126d5565b820191906000526020600020905b8154815290600101906020018083116126b857829003601f168201915b5050505050908060010154908060020160009054906101000a900460ff16908060020160019054906101000a900460ff169080600301805461271690614854565b80601f016020809104026020016040519081016040528092919081815260200182805461274290614854565b801561278f5780601f106127645761010080835404028352916020019161278f565b820191906000526020600020905b81548152906001019060200180831161277257829003601f168201915b5050505050908060040160009054906101000a900460ff16908060050180546127b790614854565b80601f01602080910402602001604051908101604052809291908181526020018280546127e390614854565b80156128305780601f1061280557610100808354040283529160200191612830565b820191906000526020600020905b81548152906001019060200180831161281357829003601f168201915b50505050509080600601805461284590614854565b80601f016020809104026020016040519081016040528092919081815260200182805461287190614854565b80156128be5780601f10612893576101008083540402835291602001916128be565b820191906000526020600020905b8154815290600101906020018083116128a157829003601f168201915b5050505050908060070180546128d390614854565b80601f01602080910402602001604051908101604052809291908181526020018280546128ff90614854565b801561294c5780601f106129215761010080835404028352916020019161294c565b820191906000526020600020905b81548152906001019060200180831161292f57829003601f168201915b50505050509080600801805461296190614854565b80601f016020809104026020016040519081016040528092919081815260200182805461298d90614854565b80156129da5780601f106129af576101008083540402835291602001916129da565b820191906000526020600020905b8154815290600101906020018083116129bd57829003601f168201915b5050505050908060090180546129ef90614854565b80601f0160208091040260200160405190810160405280929190818152602001828054612a1b90614854565b8015612a685780601f10612a3d57610100808354040283529160200191612a68565b820191906000526020600020905b815481529060010190602001808311612a4b57829003601f168201915b505050505090508b565b600260008773ffffffffffffffffffffffffffffffffffffffff1673ffffffffffffffffffffffffffffffffffffffff16815260200190815260200160002060009054906101000a900460ff16612b7f576001869080600181540180825580915050600190039060005260206000200160009091909190916101000a81548173ffffffffffffffffffffffffffffffffffffffff021916908373ffffffffffffffffffffffffffffffffffffffff1602179055506001600260008873ffffffffffffffffffffffffffffffffffffffff1673ffffffffffffffffffffffffffffffffffffffff16815260200190815260200160002060006101000a81548160ff0219169083151502179055505b6040518060a001604052808681526020018581526020018481526020018381526020018215158152506000808873ffffffffffffffffffffffffffffffffffffffff1673ffffffffffffffffffffffffffffffffffffffff1681526020019081526020016000206000820151816000019080519060200190612c02929190613271565b506020820151816001019080519060200190612c1f929190613271565b506040820151816002019080519060200190612c3c929190613271565b506060820151816003019080519060200190612c59929190613271565b5060808201518160040160006101000a81548160ff021916908315150217905550905050505050505050565b6000803373ffffffffffffffffffffffffffffffffffffffff1673ffffffffffffffffffffffffffffffffffffffff16815260200190815260200160002060040160009054906101000a900460ff16612d13576040517f08c379a0000000000000000000000000000000000000000000000000000000008152600401612d0a906144c6565b60405180910390fd5b6000803373ffffffffffffffffffffffffffffffffffffffff1673ffffffffffffffffffffffffffffffffffffffff16815260200190815260200160002060040160009054906101000a900460ff16612da1576040517f08c379a0000000000000000000000000000000000000000000000000000000008152600401612d9890614526565b60405180910390fd5b6040518060400160405280600c81526020017f4d414e5546414354555245520000000000000000000000000000000000000000815250805190602001206000803373ffffffffffffffffffffffffffffffffffffffff1673ffffffffffffffffffffffffffffffffffffffff168152602001908152602001600020600301604051612e2c919061413c565b604051809103902014612e74576040517f08c379a0000000000000000000000000000000000000000000000000000000008152600401612e6b906143e6565b60405180910390fd5b600060036000898152602001908152602001600020600001541415612ece576040517f08c379a0000000000000000000000000000000000000000000000000000000008152600401612ec5906143c6565b60405180910390fd5b60006003811115612f08577f4e487b7100000000000000000000000000000000000000000000000000000000600052602160045260246000fd5b6003600089815260200190815260200160002060060160009054906101000a900460ff166003811115612f64577f4e487b7100000000000000000000000000000000000000000000000000000000600052602160045260246000fd5b1415612fa5576040517f08c379a0000000000000000000000000000000000000000000000000000000008152600401612f9c90614406565b60405180910390fd5b6000600587604051612fb79190614153565b90815260200160405180910390206000018054612fd390614854565b905014613015576040517f08c379a000000000000000000000000000000000000000000000000000000000815260040161300c90614466565b60405180910390fd5b6040518061016001604052808781526020018881526020016000151581526020016000151581526020018281526020016000600481111561307f577f4e487b7100000000000000000000000000000000000000000000000000000000600052602160045260246000fd5b8152602001838152602001838152602001868152602001858152602001848152506005876040516130b09190614153565b908152602001604051809103902060008201518160000190805190602001906130da929190613271565b506020820151816001015560408201518160020160006101000a81548160ff02191690831515021790555060608201518160020160016101000a81548160ff0219169083151502179055506080820151816003019080519060200190613141929190613271565b5060a08201518160040160006101000a81548160ff02191690836004811115613193577f4e487b7100000000000000000000000000000000000000000000000000000000600052602160045260246000fd5b021790555060c08201518160050190805190602001906131b4929190613271565b5060e08201518160060190805190602001906131d1929190613271565b506101008201518160070190805190602001906131ef929190613271565b5061012082015181600801908051906020019061320d929190613271565b5061014082015181600901908051906020019061322b929190613271565b509050507fe7e8fac9810c1662e3dc7e398a21d467261db4d92db343803b991a20555d0ab486886040516132609291906142ba565b60405180910390a150505050505050565b82805461327d90614854565b90600052602060002090601f01602090048101928261329f57600085556132e6565b82601f106132b857805160ff19168380011785556132e6565b828001600101855582156132e6579182015b828111156132e55782518255916020019190600101906132ca565b5b5090506132f391906133b6565b5090565b6040518060a00160405280606081526020016060815260200160608152602001606081526020016000151581525090565b604051806102200160405280606081526020016000815260200160001515815260200160001515815260200160608152602001600060ff16815260200160608152602001606081526020016060815260200160608152602001606081526020016060815260200160608152602001600081526020016060815260200160608152602001600060ff1681525090565b5b808211156133cf5760008160009055506001016133b7565b5090565b60006133e66133e1846146b2565b614681565b9050828152602081018484840111156133fe57600080fd5b613409848285614812565b509392505050565b600081359050613420816149c4565b92915050565b600081359050613435816149db565b92915050565b60008135905061344a816149f2565b92915050565b600082601f83011261346157600080fd5b81356134718482602086016133d3565b91505092915050565b60008135905061348981614a02565b92915050565b6000602082840312156134a157600080fd5b60006134af84828501613411565b91505092915050565b60008060008060008060c087890312156134d157600080fd5b60006134df89828a01613411565b965050602087013567ffffffffffffffff8111156134fc57600080fd5b61350889828a01613450565b955050604087013567ffffffffffffffff81111561352557600080fd5b61353189828a01613450565b945050606087013567ffffffffffffffff81111561354e57600080fd5b61355a89828a01613450565b935050608087013567ffffffffffffffff81111561357757600080fd5b61358389828a01613450565b92505060a061359489828a01613426565b9150509295509295509295565b6000602082840312156135b357600080fd5b600082013567ffffffffffffffff8111156135cd57600080fd5b6135d984828501613450565b91505092915050565b600080604083850312156135f557600080fd5b600083013567ffffffffffffffff81111561360f57600080fd5b61361b85828601613450565b925050602061362c8582860161343b565b9150509250929050565b60008060006060848603121561364b57600080fd5b600084013567ffffffffffffffff81111561366557600080fd5b61367186828701613450565b935050602084013567ffffffffffffffff81111561368e57600080fd5b61369a86828701613450565b925050604084013567ffffffffffffffff8111156136b757600080fd5b6136c386828701613450565b9150509250925092565b600080600080600060a086880312156136e557600080fd5b600086013567ffffffffffffffff8111156136ff57600080fd5b61370b88828901613450565b955050602086013567ffffffffffffffff81111561372857600080fd5b61373488828901613450565b94505060406137458882890161347a565b935050606086013567ffffffffffffffff81111561376257600080fd5b61376e88828901613450565b925050608086013567ffffffffffffffff81111561378b57600080fd5b61379788828901613450565b9150509295509295909350565b6000602082840312156137b657600080fd5b60006137c48482850161347a565b91505092915050565b600080604083850312156137e057600080fd5b60006137ee8582860161347a565b925050602083013567ffffffffffffffff81111561380b57600080fd5b61381785828601613450565b9150509250929050565b600080600080600080600060e0888a03121561383c57600080fd5b600061384a8a828b0161347a565b975050602088013567ffffffffffffffff81111561386757600080fd5b6138738a828b01613450565b965050604088013567ffffffffffffffff81111561389057600080fd5b61389c8a828b01613450565b955050606088013567ffffffffffffffff8111156138b957600080fd5b6138c58a828b01613450565b945050608088013567ffffffffffffffff8111156138e257600080fd5b6138ee8a828b01613450565b93505060a088013567ffffffffffffffff81111561390b57600080fd5b6139178a828b01613450565b92505060c088013567ffffffffffffffff81111561393457600080fd5b6139408a828b01613450565b91505092959891949750929550565b600061395b8383614084565b905092915050565b61396c81614773565b82525050565b600061397d82614707565b613987818561472a565b935083602082028501613999856146e2565b8060005b858110156139d557848403895281516139b6858261394f565b94506139c18361471d565b925060208a0199505060018101905061399d565b50829750879550505050505092915050565b6139f081614785565b82525050565b6139ff81614785565b82525050565b60008154613a1281614854565b613a1c818661473b565b94506001821660008114613a375760018114613a4857613a7b565b60ff19831686528186019350613a7b565b613a51856146f2565b60005b83811015613a7357815481890152600182019150602081019050613a54565b838801955050505b50505092915050565b613a8d816147ee565b82525050565b613a9c81614800565b82525050565b6000613aad82614712565b613ab78185614746565b9350613ac7818560208601614821565b613ad08161498b565b840191505092915050565b6000613ae682614712565b613af08185614757565b9350613b00818560208601614821565b613b098161498b565b840191505092915050565b6000613b1f82614712565b613b298185614768565b9350613b39818560208601614821565b80840191505092915050565b6000613b52601383614757565b91507f4261746368206b686f6e6720746f6e20746169000000000000000000000000006000830152602082019050919050565b6000613b92601f83614757565b91507f44696120636869206b686f6e672070686169204d616e756661637475726572006000830152602082019050919050565b6000613bd2602783614757565b91507f426174636820636875612064756f632070686520647579657420626f69204e7560008301527f74726974696f6e000000000000000000000000000000000000000000000000006020830152604082019050919050565b6000613c38602083614757565b91507f4368692063686f2070686570205452414e53504f52545f415554484f524954596000830152602082019050919050565b6000613c78601583614757565b91507f4368692063686f20706865702052455441494c455200000000000000000000006000830152602082019050919050565b6000613cb8601283614757565b91507f4d696c6b426f7820646120746f6e2074616900000000000000000000000000006000830152602082019050919050565b6000613cf8602083614757565b91507f4368692063686f2070686570204e5554524954494f4e5f415554484f524954596000830152602082019050919050565b6000613d38601883614757565b91507f4368692063686f2070686570204449535452494255544f5200000000000000006000830152602082019050919050565b6000613d78601883614757565b91507f5061727469636970616e74206b686f6e672061637469766500000000000000006000830152602082019050919050565b6000613db8602283614757565b91507f4368692063686f207068657020464f4f445f5341464554595f415554484f524960008301527f54590000000000000000000000000000000000000000000000000000000000006020830152604082019050919050565b6000613e1e601183614757565b91507f4368692063686f2070686570204641524d0000000000000000000000000000006000830152602082019050919050565b6000613e5e601983614757565b91507f4d616e756661637475726572206b686f6e6720616374697665000000000000006000830152602082019050919050565b6000613e9e601583614757565b91507f4d696c6b426f78206b686f6e6720746f6e2074616900000000000000000000006000830152602082019050919050565b6000610220830160008301518482036000860152613eef8282613aa2565b9150506020830151613f04602086018261410f565b506040830151613f1760408601826139e7565b506060830151613f2a60608601826139e7565b5060808301518482036080860152613f428282613aa2565b91505060a0830151613f5760a086018261412d565b5060c083015184820360c0860152613f6f8282613aa2565b91505060e083015184820360e0860152613f898282613aa2565b915050610100830151848203610100860152613fa58282613aa2565b915050610120830151848203610120860152613fc18282613aa2565b915050610140830151848203610140860152613fdd8282613aa2565b915050610160830151848203610160860152613ff98282613aa2565b9150506101808301518482036101808601526140158282613aa2565b9150506101a083015161402c6101a086018261410f565b506101c08301518482036101c08601526140468282613aa2565b9150506101e08301518482036101e08601526140628282613aa2565b91505061020083015161407961020086018261412d565b508091505092915050565b600060a08301600083015184820360008601526140a18282613aa2565b915050602083015184820360208601526140bb8282613aa2565b915050604083015184820360408601526140d58282613aa2565b915050606083015184820360608601526140ef8282613aa2565b915050608083015161410460808601826139e7565b508091505092915050565b614118816147d7565b82525050565b614127816147d7565b82525050565b614136816147e1565b82525050565b60006141488284613a05565b915081905092915050565b600061415f8284613b14565b915081905092915050565b600060208201905061417f6000830184613963565b92915050565b6000602082019050818103600083015261419f8184613972565b905092915050565b60006020820190506141bc60008301846139f6565b92915050565b600060208201905081810360008301526141dc8184613adb565b905092915050565b600060408201905081810360008301526141fe8185613adb565b905061420d6020830184613a93565b9392505050565b6000604082019050818103600083015261422e8185613adb565b905081810360208301526142428184613adb565b90509392505050565b600060a08201905081810360008301526142658188613adb565b905081810360208301526142798187613adb565b9050818103604083015261428d8186613adb565b905081810360608301526142a18185613adb565b90506142b060808301846139f6565b9695505050505050565b600060408201905081810360008301526142d48185613adb565b90506142e3602083018461411e565b9392505050565b6000610160820190508181036000830152614305818e613adb565b9050614314602083018d61411e565b614321604083018c6139f6565b61432e606083018b6139f6565b8181036080830152614340818a613adb565b905061434f60a0830189613a93565b81810360c08301526143618188613adb565b905081810360e08301526143758187613adb565b905081810361010083015261438a8186613adb565b905081810361012083015261439f8185613adb565b90508181036101408301526143b48184613adb565b90509c9b505050505050505050505050565b600060208201905081810360008301526143df81613b45565b9050919050565b600060208201905081810360008301526143ff81613b85565b9050919050565b6000602082019050818103600083015261441f81613bc5565b9050919050565b6000602082019050818103600083015261443f81613c2b565b9050919050565b6000602082019050818103600083015261445f81613c6b565b9050919050565b6000602082019050818103600083015261447f81613cab565b9050919050565b6000602082019050818103600083015261449f81613ceb565b9050919050565b600060208201905081810360008301526144bf81613d2b565b9050919050565b600060208201905081810360008301526144df81613d6b565b9050919050565b600060208201905081810360008301526144ff81613dab565b9050919050565b6000602082019050818103600083015261451f81613e11565b9050919050565b6000602082019050818103600083015261453f81613e51565b9050919050565b6000602082019050818103600083015261455f81613e91565b9050919050565b600060208201905081810360008301526145808184613ed1565b905092915050565b600060208201905061459d600083018461411e565b92915050565b60006080820190506145b8600083018761411e565b81810360208301526145ca8186613adb565b905081810360408301526145de8185613adb565b90506145ed606083018461411e565b95945050505050565b600060e08201905061460b600083018a61411e565b818103602083015261461d8189613adb565b905081810360408301526146318188613adb565b9050614640606083018761411e565b81810360808301526146528186613adb565b905081810360a08301526146668185613adb565b905061467560c0830184613a84565b98975050505050505050565b6000604051905081810181811067ffffffffffffffff821117156146a8576146a761495c565b5b8060405250919050565b600067ffffffffffffffff8211156146cd576146cc61495c565b5b601f19601f8301169050602081019050919050565b6000819050602082019050919050565b60008190508160005260206000209050919050565b600081519050919050565b600081519050919050565b6000602082019050919050565b600082825260208201905092915050565b600081905092915050565b600082825260208201905092915050565b600082825260208201905092915050565b600081905092915050565b600061477e826147b7565b9050919050565b60008115159050919050565b600081905061479f8261499c565b919050565b60008190506147b2826149b0565b919050565b600073ffffffffffffffffffffffffffffffffffffffff82169050919050565b6000819050919050565b600060ff82169050919050565b60006147f982614791565b9050919050565b600061480b826147a4565b9050919050565b82818337600083830152505050565b60005b8381101561483f578082015181840152602081019050614824565b8381111561484e576000848401525b50505050565b6000600282049050600182168061486c57607f821691505b602082108114156148805761487f61492d565b5b50919050565b6000614891826147d7565b91507fffffffffffffffffffffffffffffffffffffffffffffffffffffffffffffffff8214156148c4576148c36148cf565b5b600182019050919050565b7f4e487b7100000000000000000000000000000000000000000000000000000000600052601160045260246000fd5b7f4e487b7100000000000000000000000000000000000000000000000000000000600052602160045260246000fd5b7f4e487b7100000000000000000000000000000000000000000000000000000000600052602260045260246000fd5b7f4e487b7100000000000000000000000000000000000000000000000000000000600052604160045260246000fd5b6000601f19601f8301169050919050565b600481106149ad576149ac6148fe565b5b50565b600581106149c1576149c06148fe565b5b50565b6149cd81614773565b81146149d857600080fd5b50565b6149e481614785565b81146149ef57600080fd5b50565b600581106149ff57600080fd5b50565b614a0b816147d7565b8114614a1657600080fd5b5056fea2646970667358221220606ec17ad1cb492f9a1876c58c3fb603ba19373770ff2bc5fc5ad9a09088177d64736f6c63430008000033",
  "immutableReferences": {},
  "source": "// SPDX-License-Identifier: FIT\r\npragma solidity ^0.8.0;\r\n\r\ncontract MilkSupplyChain {\r\n    // Enum nh ngha trng thi ca l sa\r\n    // - Created: L sa va c to bi FARM.\r\n    // - ApprovedByNutrition: L sa  c ph duyt bi NUTRITION_AUTHORITY.\r\n    // - ManufacturerProcessing: L sa ang c ch bin bi MANUFACTURER.\r\n    // - Processed: L sa  hon thnh ch bin.\r\n    enum BatchStatus { Created, ApprovedByNutrition, ManufacturerProcessing, Processed }\r\n    \r\n    // Enum nh ngha trng thi ca hp sa\r\n    // - Created: Hp sa va c to bi MANUFACTURER.\r\n    // - Approved: Hp sa  c ph duyt bi FOOD_SAFETY_AUTHORITY.\r\n    // - InTransit: Hp sa ang c vn chuyn bi DISTRIBUTOR.\r\n    // - ArrivedAtRetailer: Hp sa  n ca RETAILER.\r\n    // - Sold: Hp sa  c bn cho ngi tiu dng.\r\n    enum MilkBoxStatus { Created, Approved, InTransit, ArrivedAtRetailer, Sold }\r\n    \r\n    // Struct Participant lu thng tin ca cc bn tham gia chui cung ng.\r\n    // Lu : a ch ca participant c dng lm key trong mapping.\r\n    struct Participant {\r\n        string name;       // Tn ca participant.\r\n        string location;   // V tr (a ch) ca participant.\r\n        string phone;      // S in thoi lin h.\r\n        string role;       // Vai tr ca participant (v d: \"FARM\", \"NUTRITION_AUTHORITY\", \"MANUFACTURER\", v.v.).\r\n        bool isActive;     // Trng thi hot ng.\r\n    }\r\n    \r\n    // Mapping lu tr Participant, key l a ch ca participant.\r\n    mapping(address => Participant) public participants;\r\n    // Duyt ton b mapping participants\r\n    address[] public participantAddresses;\r\n    mapping(address => bool) public participantRegistered;\r\n\r\n    // Hm ng k hoc cp nht thng tin ca mt Participant\r\n    function setParticipant(\r\n        address _participant,\r\n        string memory _name,\r\n        string memory _location,\r\n        string memory _phone,\r\n        string memory _role,\r\n        bool _isActive\r\n    ) public {\r\n        if (!participantRegistered[_participant]) {\r\n            participantAddresses.push(_participant);\r\n            participantRegistered[_participant] = true;\r\n        }\r\n        participants[_participant] = Participant(_name, _location, _phone, _role, _isActive);\r\n    }\r\n    \r\n    // Hm ly ton b d liu Participant, tr v mng cc struct Participant.\r\n    function getParticipants() public view returns (Participant[] memory) {\r\n        uint256 len = participantAddresses.length;\r\n        Participant[] memory result = new Participant[](len);\r\n        for (uint256 i = 0; i < len; i++) {\r\n            result[i] = participants[participantAddresses[i]];\r\n        }\r\n        return result;\r\n    }\r\n    \r\n    // Struct MilkBatch lu tr thng tin ca l sa.\r\n    // - batchId: M nh danh ca l sa (t ng tng).\r\n    // - batchName: Tn ca l sa.\r\n    // - milkingDate: Ngy vt sa.\r\n    // - volume: Th tch sa.\r\n    // - farmOwner: a ch ca trang tri s hu (FARM).\r\n    // - approvedBy: a ch ca c quan duyt (NUTRITION_AUTHORITY).\r\n    // - status: Trng thi ca l sa theo enum BatchStatus.\r\n    struct MilkBatch {\r\n        uint256 batchId;\r\n        string batchName;\r\n        string milkingDate;\r\n        uint256 volume;\r\n        string farmOwner;\r\n        string approvedBy;\r\n        BatchStatus status;\r\n    }\r\n    mapping(uint256 => MilkBatch) public milkBatches;\r\n    \r\n    // Bin t ng tng batchId, bt u t 1.\r\n    uint256 public nextBatchId = 1;\r\n    \r\n    // Struct MilkBox lu tr thng tin ca hp sa.\r\n    // - serialNumber: S serial nh danh hp sa.\r\n    // - batchId: Lin kt n l sa (MilkBatch) m hp sa thuc v.\r\n    // - processingApproved: Trng thi ph duyt ch bin (FOOD_SAFETY_AUTHORITY).\r\n    // - transportApproved: Trng thi ph duyt vn chuyn (TRANSPORT_AUTHORITY).\r\n    // - distributorAddress: a ch ca nh phn phi (DISTRIBUTOR) nhn hp sa.\r\n    // - status: Trng thi ca hp sa theo enum MilkBoxStatus.\r\n    // - owner: Ch s hu hin ti ca hp sa (c th thay i theo qu trnh chuyn giao).\r\n    // - manufacturer: a ch ca nh my sn xut (MANUFACTURER) to ra hp sa.\r\n    // - boxName: Tn ca hp sa.\r\n    // - manufacturingDate: Ngy sn xut ca hp sa.\r\n    // - expirationDate: Hn s dng ca hp sa.\r\n    struct MilkBox {\r\n        string serialNumber;\r\n        uint256 batchId;\r\n        bool processingApproved;\r\n        bool transportApproved;\r\n        string distributorAddress;\r\n        MilkBoxStatus status;\r\n        string owner;\r\n        string manufacturer;\r\n        string boxName;\r\n        string manufacturingDate;\r\n        string expirationDate;\r\n    }\r\n    mapping(string => MilkBox) public milkBoxes;\r\n    \r\n    // Cc s kin theo di cc hnh ng trn chui cung ng.\r\n    event MilkBatchCreated(uint256 batchId, string batchName, string milkingDate, uint256 volume);\r\n    event MilkBatchApproved(uint256 batchId);\r\n    event MilkBoxCreated(string serialNumber, uint256 batchId);\r\n    event ProcessingBoxApproved(string serialNumber);\r\n    event DistributorUpdated(string serialNumber, string distributor);\r\n    event TransportBoxApproved(string serialNumber);\r\n    event BoxStatusUpdated(string serialNumber, MilkBoxStatus status);\r\n    \r\n    // 1. FARM to MilkBatch (batchId t ng tng).\r\n    function createMilkBatch(\r\n        string memory _batchName,\r\n        string memory _milkingDate,\r\n        uint256 _volume,\r\n        string memory _farmOwner,\r\n        string memory _approvedBy\r\n    ) public {\r\n        // Ch cho php participant c role \"FARM\" thc hin.\r\n        require(participants[msg.sender].isActive, \"Participant khong active\");\r\n        require(\r\n            keccak256(bytes(participants[msg.sender].role)) == keccak256(bytes(\"FARM\")),\r\n            \"Chi cho phep FARM\"\r\n        );\r\n        \r\n        uint256 currentBatchId = nextBatchId;\r\n        nextBatchId++;\r\n        \r\n        milkBatches[currentBatchId] = MilkBatch({\r\n            batchId: currentBatchId,\r\n            batchName: _batchName,\r\n            milkingDate: _milkingDate,\r\n            volume: _volume,\r\n            farmOwner: _farmOwner,\r\n            approvedBy: _approvedBy,\r\n            status: BatchStatus.Created\r\n        });\r\n        emit MilkBatchCreated(currentBatchId, _batchName, _milkingDate, _volume);\r\n    }\r\n    \r\n    // 2. NUTRITION_AUTHORITY ph duyt MilkBatch.\r\n    function approveMilking(uint256 _batchId, string memory _approvedBy) public {\r\n        require(participants[msg.sender].isActive, \"Participant khong active\");\r\n        require(\r\n            keccak256(bytes(participants[msg.sender].role)) == keccak256(bytes(\"NUTRITION_AUTHORITY\")),\r\n            \"Chi cho phep NUTRITION_AUTHORITY\"\r\n        );\r\n        require(milkBatches[_batchId].batchId != 0, \"Batch khong ton tai\");\r\n        \r\n        MilkBatch storage batch = milkBatches[_batchId];\r\n        batch.approvedBy = _approvedBy;\r\n        batch.status = BatchStatus.ApprovedByNutrition;\r\n        emit MilkBatchApproved(_batchId);\r\n    }\r\n    \r\n    // 3. MANUFACTURER to MilkBox t MilkBatch  c ph duyt.\r\n    // Cho php truyn vo _manufacturer  xc nh a ch ca nh my sn xut.\r\n    function createMilkBox(\r\n        uint256 _batchId,\r\n        string memory _serialNumber,\r\n        string memory _boxName,\r\n        string memory _manufacturingDate,\r\n        string memory _expirationDate,\r\n        string memory _manufacturer,\r\n        string memory _distributorAddress\r\n    ) public {\r\n        require(participants[msg.sender].isActive, \"Participant khong active\");\r\n        // Kim tra _manufacturer  c ng k v c role MANUFACTURER.\r\n        require(participants[msg.sender].isActive, \"Manufacturer khong active\");\r\n        require(\r\n            keccak256(bytes(participants[msg.sender].role)) == keccak256(bytes(\"MANUFACTURER\")),\r\n            \"Dia chi khong phai Manufacturer\"\r\n        );\r\n        \r\n        require(milkBatches[_batchId].batchId != 0, \"Batch khong ton tai\");\r\n        // L sa phi khc trng thi Created ( c ph duyt bi Nutrition).\r\n        require(\r\n            milkBatches[_batchId].status != BatchStatus.Created,\r\n            \"Batch chua duoc phe duyet boi Nutrition\"\r\n        );\r\n        require(bytes(milkBoxes[_serialNumber].serialNumber).length == 0, \"MilkBox da ton tai\");\r\n        \r\n        milkBoxes[_serialNumber] = MilkBox({\r\n            serialNumber: _serialNumber,\r\n            batchId: _batchId,\r\n            processingApproved: false,\r\n            transportApproved: false,\r\n            distributorAddress: _distributorAddress,\r\n            status: MilkBoxStatus.Created,\r\n            owner: _manufacturer,\r\n            manufacturer: _manufacturer,\r\n            boxName: _boxName,\r\n            manufacturingDate: _manufacturingDate,\r\n            expirationDate: _expirationDate\r\n        });\r\n        emit MilkBoxCreated(_serialNumber, _batchId);\r\n    }\r\n    \r\n    // 4. FOOD_SAFETY_AUTHORITY ph duyt MilkBox => processingApproved = true.\r\n    function approveProcessingBox(string memory _serialNumber) public {\r\n        require(participants[msg.sender].isActive, \"Participant khong active\");\r\n        require(\r\n            keccak256(bytes(participants[msg.sender].role)) == keccak256(bytes(\"FOOD_SAFETY_AUTHORITY\")),\r\n            \"Chi cho phep FOOD_SAFETY_AUTHORITY\"\r\n        );\r\n        require(bytes(milkBoxes[_serialNumber].serialNumber).length != 0, \"MilkBox khong ton tai\");\r\n        \r\n        milkBoxes[_serialNumber].processingApproved = true;\r\n        milkBoxes[_serialNumber].status = MilkBoxStatus.Approved;\r\n        emit ProcessingBoxApproved(_serialNumber);\r\n    }\r\n    \r\n    // 5. DISTRIBUTOR cp nht MilkBox khi nhn hp sa.\r\n    function updateDistributor(string memory _serialNumber, string memory _distributorAddress, string memory _owner) public {\r\n        require(participants[msg.sender].isActive, \"Participant khong active\");\r\n        require(\r\n            keccak256(bytes(participants[msg.sender].role)) == keccak256(bytes(\"DISTRIBUTOR\")),\r\n            \"Chi cho phep DISTRIBUTOR\"\r\n        );\r\n        require(bytes(milkBoxes[_serialNumber].serialNumber).length != 0, \"MilkBox khong ton tai\");\r\n        \r\n        milkBoxes[_serialNumber].distributorAddress = _distributorAddress;\r\n        milkBoxes[_serialNumber].owner = _owner;\r\n        milkBoxes[_serialNumber].status = MilkBoxStatus.InTransit;\r\n        emit DistributorUpdated(_serialNumber, _owner);\r\n    }\r\n    \r\n    // 6. TRANSPORT_AUTHORITY ph duyt vn chuyn MilkBox => transportApproved = true.\r\n    function approveTransportBox(string memory _serialNumber) public {\r\n        require(participants[msg.sender].isActive, \"Participant khong active\");\r\n        require(\r\n            keccak256(bytes(participants[msg.sender].role)) == keccak256(bytes(\"TRANSPORT_AUTHORITY\")),\r\n            \"Chi cho phep TRANSPORT_AUTHORITY\"\r\n        );\r\n        require(bytes(milkBoxes[_serialNumber].serialNumber).length != 0, \"MilkBox khong ton tai\");\r\n        \r\n        milkBoxes[_serialNumber].transportApproved = true;\r\n        emit TransportBoxApproved(_serialNumber);\r\n    }\r\n    \r\n    // 7. RETAILER cp nht trng thi MilkBox (chuyn sang ArrivedAtRetailer hoc Sold).\r\n    function updateBoxStatusAtRetail(string memory _serialNumber, MilkBoxStatus _newStatus) public {\r\n        require(participants[msg.sender].isActive, \"Participant khong active\");\r\n        require(\r\n            keccak256(bytes(participants[msg.sender].role)) == keccak256(bytes(\"RETAILER\")),\r\n            \"Chi cho phep RETAILER\"\r\n        );\r\n        require(bytes(milkBoxes[_serialNumber].serialNumber).length != 0, \"MilkBox khong ton tai\");\r\n        \r\n        milkBoxes[_serialNumber].status = _newStatus;\r\n        emit BoxStatusUpdated(_serialNumber, _newStatus);\r\n    }\r\n    \r\n    // 8. Ngi tiu dng: Ly thng tin chi tit ca MilkBox v MilkBatch.\r\n    // hm ny tr v mt struct MilkBoxDetail gom gn tt c thng tin cn thit.\r\n    function getMilkBoxDetails(string memory _serialNumber) public view returns (MilkBoxDetail memory) {\r\n        MilkBox memory box = milkBoxes[_serialNumber];\r\n        require(bytes(box.serialNumber).length != 0, \"MilkBox khong ton tai\");\r\n        MilkBatch memory batch = milkBatches[box.batchId];\r\n        MilkBoxDetail memory detail = MilkBoxDetail({\r\n            serialNumber: box.serialNumber,\r\n            batchId: box.batchId,\r\n            processingApproved: box.processingApproved,\r\n            transportApproved: box.transportApproved,\r\n            distributorAddress: box.distributorAddress,\r\n            boxStatus: uint8(box.status),\r\n            owner: box.owner,\r\n            manufacturer: box.manufacturer,\r\n            boxName: box.boxName,\r\n            manufacturingDate: box.manufacturingDate,\r\n            expirationDate: box.expirationDate,\r\n            batchName: batch.batchName,\r\n            milkingDate: batch.milkingDate,\r\n            volume: batch.volume,\r\n            farmOwner: batch.farmOwner,\r\n            approvedBy: batch.approvedBy,\r\n            batchStatus: uint8(batch.status)\r\n        });\r\n        return detail;\r\n    }\r\n    \r\n    // Struct MilkBoxDetail: Gom gn tt c thng tin ca MilkBox v MilkBatch cn thit cho ngi tiu dng.\r\n    struct MilkBoxDetail {\r\n        string serialNumber;\r\n        uint256 batchId;\r\n        bool processingApproved;\r\n        bool transportApproved;\r\n        string distributorAddress;\r\n        uint8 boxStatus;\r\n        string owner;\r\n        string manufacturer;\r\n        string boxName;\r\n        string manufacturingDate;\r\n        string expirationDate;\r\n        string batchName;\r\n        string milkingDate;\r\n        uint256 volume;\r\n        string farmOwner;\r\n        string approvedBy;\r\n        uint8 batchStatus;\r\n    }\r\n}\r\n",
  "sourcePath": "D:\\project_BlockChain\\BT_CLASS\\BE\\contracts\\MilkSupplyChain.sol",
  "compiler": {
    "name": "solc",
    "version": "0.8.0+commit.c7dfd78e.Emscripten.clang"
  },
  "schemaVersion": "3.4.16",
  "updatedAt": "2025-03-18T14:49:15.297Z",
  "networkType": "ethereum",
  "devdoc": {
    "kind": "dev",
    "methods": {},
    "version": 1
  },
  "userdoc": {
    "kind": "user",
    "methods": {},
    "version": 1
  }
}